:046800000C940038BC
:1068100084B7877F84BF88E10FB6F89480936000C7
:10682000109260000FBE90E080E80FB6F89480935D
:106830006100909361000FBEC1E0C5BF82E085BFDB
:10684000AFD6C0936F0083E08093810078948091ED
:106850000001882339F081E091E00E94373D0E94D9
:10686000C03CF5CF8091800291E0980F9093800218
:106870008F3F89F78091E00081608093E00082E49F
:106880009CED90938C0280938B029CE088E10FB684
:10689000F894A895809360000FBE90936000FFCF9E
:1068A0000895089581E091E00C941A3D81E091E013
:1068B0000C94D93C6BD0109280020895913039F03D
:1068C000923051F480E290E02CEE31E009C082E198
:1068D00090E02CE032E004C080E090E020E030E086
:1068E000FA01318320830895AF92BF92DF92EF9235
:1068F000FF920F931F93CF93DF93EC01D62E48A105
:106900005F8D0BA11AA14635510518F47A015A0181
:1069100014C080913C01807F856080933C0181E2BE
:10692000809346011092470180E026C0C501DD201A
:1069300059F0FED18FEFA81AB80AC5018E199F0928
:106940008017910798F302C02AD1F4CF20E030E0FD
:1069500089E0000F111F221F331F8A95D1F78C8900
:106960009D89AE89BF89801B910BA20BB30B8C8BC9
:106970009D8BAE8BBF8B81E0DF91CF911F910F91EB
:10698000FF90EF90DF90BF90AF900895EF92FF924D
:106990000F931F93CF93DF93EC018B8D8F31A0F476
:1069A0008D3108F0BAC08231E1F138F4882309F45E
:1069B000B4C0833009F466C0B5C08A3109F48CC014
:1069C0008B3109F4A2C0AEC0883209F47FC010F543
:1069D000853209F0A7C01092F1001092F1001092D8
:1069E000F10085E58093F1001092F1001092F10022
:1069F00082E08093F1001092F1008091E8008E77A0
:106A00008093E8008C899D89AE89BF890897A10988
:106A1000B10976C08A3209F457C08F3209F47DC0BB
:106A200081C00F8D1E8D8C8D837019F48D8D882300
:106A300041F080913C01807F856080933C0184E23D
:106A400078C078010532110518F084E2E82EF12CA7
:106A500040E050E0B7018EE192E0D5D360E070E015
:106A6000C8018E199F0991D38091E8008E77809399
:106A7000E8008C899D89AE89BF898E199F09A1097B
:106A8000B1093EC01F8D012F133108F002E1E02E45
:106A9000F12C40E050E0B7018AE391E0B4D3812FBC
:106AA00090E060E070E08E199F096FD38091E8005C
:106AB0008E778093E8008C899D89AE89BF89801B81
:106AC0009109A109B1091CC060E001C061E0CE01DB
:106AD0000BDF8823F1F132C01092F1001092F10027
:106AE0001092F1001092F1008091E8008E7780936F
:106AF000E8008C899D89AE89BF890497A109B109F5
:106B00008C8B9D8BAE8BBF8B19C08F8D837091E06A
:106B1000823009F490E0909300011C8A1D8A1E8A3D
:106B20001F8A0CC080913C01807F856080933C016E
:106B300080E280934601109247010BC080913C0196
:106B4000807F80933C01109246011092470181E0C2
:106B500001C080E0DF91CF911F910F91FF90EF90E6
:106B600008959B0136952795260FE22FF0E0E80F58
:106B7000F91F60FF0EC080818F70942F9295907FD7
:106B8000892B808384E0569547958A95E1F7418368
:106B900008954083842F807F852B818308954F92B1
:106BA0005F926F927F928F929F92AF92BF92CF929D
:106BB000DF92EF92FF920F931F93CF93DF93CDB7A6
:106BC000DEB7D2500FB6F894DEBF0FBECDBF8C013A
:106BD00040E050E060E072E0CE0101965DD380912C
:106BE000E8008B778093E8000330110508F489C032
:106BF0000330110551F480EAFE013196ACE4B1E0B6
:106C000001900D928A95E1F77CC08091A601909148
:106C1000A7018150904C880F991F880F991F081762
:106C2000190778F48091E6019091E7018150904C2A
:106C3000880F991F880F991F0817190708F043C07C
:106C400060C09C012D5C3F4F2017310758F378013D
:106C5000E81AF90AFE2CEE24FF0C67018EEFD81A11
:106C600047012401612C712CC4018F779927892B4E
:106C700019F4C301B20135D2F401EE19FF0981E024
:106C800090E08C0F9D1FE80FF91F418150E0542FB9
:106C900044278081482BC301B20147D2540192E0BE
:106CA000A90EB11CC5018F779927892B31F4B40146
:106CB0006E57710980E090E026D2AC14BD0409F44F
:106CC000B1CF4501CECF9C012F5F3F4F2017310739
:106CD000C0F0081B190B102F0027110FFE01319671
:106CE0007F01C12CD12CF70161917F01C601800F7A
:106CF000911F4AD2FFEFCF1ADF0AC11482E0D806F3
:106D000091F7DE5F0FB6F894DEBF0FBECDBFDF9107
:106D1000CF911F910F91FF90EF90DF90CF90BF9098
:106D2000AF909F908F907F906F905F904F9008955D
:106D3000AF92BF92CF92DF92EF92FF920F931F9389
:106D4000CF93DF93CDB7DEB7D2500FB6F894DEBF46
:106D50000FBECDBF9C01AE014F5F5F4F7A0180E057
:106D600092E0FA01AC01119241505040E1F723301A
:106D70003105C0F42130310508F58EE3E2E4F2E09C
:106D8000D70101900D928A95E1F785E5C150DE4F5C
:106D90008883CF5FD1408AEAC050DE4F8883C050DD
:106DA000D2408AC02330310591F580EAECE4F1E06D
:106DB000D70101900D928A95E1F77EC048EF5FE020
:106DC00060E070E0C701CDDE4FEF5FE061E070E0B2
:106DD000C701C7DE6091A6017091A70110E0CB0149
:106DE00001966C011C3011F0AC0102C04FEF5FE066
:106DF000C701B7DE1F5FB6011D3089F76091E6015C
:106E00007091E7014FEF5FE0C701ABDE55C08091A5
:106E1000A6019091A7018150904C880F991F880F6F
:106E2000991F2817390770F48091E6019091E701C6
:106E30008150904C880F991F880F991F2817390788
:106E4000E8F43AC0AC014D5C5F4F4217530760F362
:106E5000F901E81BF90BCF01982F8827990FAE0194
:106E60004F5F5D4FD7018E199F09FC01EA0FFB1F91
:106E7000E491ED93A417B507C1F7D6CFAC014F5FEE
:106E80005F4F42175307C0F08901081B190B102FE1
:106E90000027110F5E01FFEFAF1AFDEFBF0A670178
:106EA0000E191F09C8018C0D9D1D6DD1F60181932E
:106EB0006F01EA15FB05B1F740E050E060E072E0D9
:106EC000C701A1D18091E8008E778093E800DE5F52
:106ED0000FB6F894DEBF0FBECDBFDF91CF911F91EB
:106EE0000F91FF90EF90DF90CF90BF90AF900895FB
:1070000039C0000063C0000061C000005FC0000024
:107010005DC000005BC0000059C0000057C0000008
:1070200055C0000053C0000051C00000C8C200009D
:107030005EC300004BC0000049C0000047C0000014
:1070400045C0000043C0000042C000003FC0000037
:107050003DC000003BC0000039C0000037C0000048
:1070600035C0000033C0000031C000002FC0000058
:107070002DC0000011241FBECFEFD4E0DEBFCDBF76
:1070800004B603FE0EC080918B0290918C02823474
:107090009C4D39F410928C0210928B02E0E0F0E0EB
:1070A000099512E0A0E0B1E0E2EDFCE702C0059036
:1070B0000D92A038B107D9F712E0A0E8B2E001C004
:1070C0001D92AB38B107E1F7A3DB01C699CF1F9240
:1070D0000F920FB60F9211240F900FBE0F901F90BA
:1070E000189507B600FCFDCFF999FECF23E0FB0110
:1070F00020935700E89507B600FCFDCF81E180930F
:107100005700E895089507B600FCFDCFF999FECF2A
:1071100025E0FB0120935700E89507B600FCFDCF62
:1071200081E180935700E895089507B600FCFDCFF4
:10713000F999FECF21E0FB010A0120935700E89561
:107140001124089521E2FC012093570084910895B1
:1071500029E0FC012093570084910895E1E0F0E0DC
:1071600089E0809357008491089507B600FCFDCF15
:10717000F999FECF809599E0E1E0F0E0082E909338
:107180005700E895089589C590C5EF92FF920F9337
:107190001F93CF93DF93EC017B019DD181112CC014
:1071A000E114F10429F0F70180819181C81BD90B0A
:1071B00000E010E02097F9F08091E80085FD15C00F
:1071C0008091E8008E778093E800E114F10449F0A3
:1071D000F70180819181080F191F1183008385E0D9
:1071E0000BC079D1882331F307C01092F1002197A9
:1071F0000F5F1F4FDFCF80E0DF91CF911F910F9185
:10720000FF90EF900895CF92DF92EF92FF920F934D
:107210001F93CF93DF93EC018B016A015CD1811145
:1072200032C0C114D10439F0F60180819181081B6C
:10723000190BC80FD91FE12CF12C0115110511F103
:107240008091E80085FD15C08091E8008E778093DD
:10725000E800C114D10449F0F60180819181E80E63
:10726000F91EF182E08285E00EC035D1882329F332
:107270000AC089918093F10001501109FFEFEF1AC4
:10728000FF0ADBCF80E0DF91CF911F910F91FF903C
:10729000EF90DF90CF900895CF92DF92EF92FF9220
:1072A0000F931F93CF93DF93EC018B016A0113D1EE
:1072B000811132C0C114D10439F0F601808191816D
:1072C000081B190BC80FD91FE12CF12C0115110552
:1072D00011F18091E80085FD15C08091E8008B7761
:1072E0008093E800C114D10449F0F60180819181B6
:1072F000E80EF91EF182E08285E00EC0ECD0882312
:1073000029F30AC08091F100899301501109FFEF20
:10731000EF1AFF0ADBCF80E0DF91CF911F910F9131
:10732000FF90EF90DF90CF900895209189023091E7
:107330008A022617370748F06115710539F4209144
:10734000E8002E772093E80001C0B90140E0611504
:10735000710579F12EB32223F1F12530F1F120915D
:10736000E80023FD3CC02091E80022FD2EC02091C2
:10737000E80020FFECCF2091F20030E0FC01CF01CB
:107380006115710559F02830310540F481918093E1
:10739000F100615071092F5F3F4FF1CF41E028307C
:1073A000310509F040E02091E8002E772093E800B5
:1073B000CECF4111CFCF09C08EB3882361F0853085
:1073C00061F08091E80083FD0AC08091E80082FFAF
:1073D000F3CF80E0089582E0089583E0089581E08E
:1073E00008958F708093E900EBEEF0E0808181607A
:1073F0008083EDEEF0E010826093EC00408380919A
:10740000EE00881F8827881F0895EF92FF920F9340
:107410001F93CF93DF93E62EEC018C010C5F1F4F7F
:10742000F12CFE1499F19881992359F1F8012081EA
:1074300069817A8131973081892F8F70853010F082
:1074400080E025C0223010F442E001C046E0E8E0D0
:10745000F0E020E0E617F70720F42F5FEE0FFF1FA4
:10746000F9CF2295207F422B232F2295220F220F26
:10747000207C991F9927991F622F692BB2DF8823DF
:10748000F9F2F39425960B5F1F4FCBCF81E0DF918C
:10749000CF911F910F91FF90EF90089580918302FB
:1074A00087FF0FC08091E80082FD04C08EB3811178
:1074B000F9CF10C08091E8008B770AC08EB3882383
:1074C00049F08091E80080FFF9CF8091E8008E7745
:1074D0008093E80008952091E4003091E50095E65E
:1074E0004091EC00842F817040FF21C08091E80022
:1074F00080FD1BC08EB3882391F0853091F0809180
:10750000EB0085FD10C04091E4005091E50042176A
:10751000530731F39A01915019F784E0089582E0FE
:10752000089583E0089581E0089580E008954091F2
:10753000E80042FFDFCF08953CD03ED08091D800D4
:107540008F778093D8008091D80080688093D8008E
:107550008091D8008F7D8093D80084E089BD86E03B
:1075600089BD09B400FEFDCF1EBA1092810242E02F
:1075700060E080E036DF8091E1008E7F8093E10063
:107580008091E20081608093E2008091E200886057
:107590008093E2008091E0008E7F8093E000089568
:1075A000E3E6F0E080818E7F808381E08093820239
:1075B000C3CF1092E20008951092E10008951F9247
:1075C0000F920FB60F9211242F933F934F935F9317
:1075D0006F937F938F939F93AF93BF93EF93FF939B
:1075E0008091E10080FF16C08091E20080FF12C010
:1075F0008091E2008E7F8093E2008091E2008061C2
:107600008093E2008091D80080628093D80019BCFA
:107610001EBA47D98091E10084FF2EC08091E2001C
:1076200084FF2AC084E089BD86E089BD09B400FEDC
:10763000FDCF8091D8008F7D8093D8008091E100AC
:107640008F7E8093E1008091E2008F7E8093E20044
:107650008091E20081608093E20080918102882322
:1076600011F084E007C08091E30087FD02C081E053
:1076700001C083E08EBB14D98091E10083FF26C056
:107680008091E20083FF22C08091E100877F809398
:10769000E10082E08EBB109281028091E1008E7F3A
:1076A0008093E1008091E2008E7F8093E2008091E0
:1076B000E20080618093E20042E060E080E091DEE1
:1076C0008091F00088608093F00059D1FF91EF9194
:1076D000BF91AF919F918F917F916F915F914F91EA
:1076E0003F912F910F900FBE0F901F9018951F92F2
:1076F0000F920FB60F9211242F933F934F935F93E6
:107700006F937F938F939F93AF93BF93CF93DF93A9
:10771000EF93FF93C091E900CF708091EC00D82FD8
:10772000D17080FDD0E81092E9008091F000877F51
:107730008093F00078941ED01092E9008091F000C0
:1077400088608093F000CD2BCF70C093E900FF914B
:10775000EF91DF91CF91BF91AF919F918F917F91E9
:107760006F915F914F913F912F910F900FBE0F90AE
:107770001F9018951F93CF93DF9300D0CDB7DEB73E
:10778000E3E8F2E088E08E0F9091F10091938E1380
:10779000FBCF8CD88091E80083FFDDC0809183020D
:1077A00090918402953009F466C030F4913059F11B
:1077B00068F0933041F1CFC0983009F49EC0993001
:1077C00009F4ADC0963009F0C6C076C0803881F0AB
:1077D000823809F0C0C0809187028F708093E900E1
:1077E0008091EB0085FB882780F91092E90001C0A9
:1077F00080E09091E800977F9093E8008093F100FB
:107800001092F10085C0282F2D7F09F0A4C082308E
:1078100009F0A1C080918502811127C08091870263
:107820008F7009F498C08093E9002091EB0020FF4D
:107830001CC0933021F48091EB00806214C09091C1
:10784000EB0090619093EB0021E030E0A90102C0D1
:10785000440F551F8A95E2F74093EA001092EA0020
:107860008091EB0088608093EB001092E90080919A
:10787000E800877F50C081116EC0109185021F778C
:107880008091E3008078812B8093E3008091E80071
:10789000877F8093E80002DE8091E80080FFFCCFC4
:1078A0008091E30080688093E300111102C082E0C0
:1078B00001C083E08EBB4FC08058823008F04BC0BF
:1078C000AE014F5F5F4F609187028091850290917A
:1078D00086020E945E34BC01892B09F43CC0909161
:1078E000E800977F9093E80089819A811EDD80915E
:1078F000E8008B778093E8002EC0803861F5809196
:10790000E800877F8093E800809181028093F100F6
:107910008091E8008E778093E800C0DD1CC0811163
:107920001AC0909185029230B0F48091E800877F70
:107930008093E80090938102B1DD809181028111F2
:1079400006C08091E30087FD02C081E001C084E0B1
:107950008EBB0E9452348091E80083FF0AC0809160
:10796000E800877F8093E8008091EB00806280933D
:10797000EB000F900F90DF91CF911F910895089524
:10798000CF938EB3882399F0C091E900CF70909186
:10799000EC00892F817090FD80E8C82B1092E900DF
:1079A0008091E80083FDE6DECF70C093E900CF91BF
:1079B0000895CF93DF932091E80023FF38C0FC01A6
:1079C000208130E04091870250918802421753078E
:1079D00071F5209184022E3F81F02F3F41F52091D7
:1079E0008302213221F5EC018091E800877F8093AA
:1079F000E80054DD81E088AF1AC020918302213A6B
:107A0000B1F42091E800277F2093E8002091E8005E
:107A100020FFFCCFFC01838581508093F100809191
:107A2000E8008E778093E800DF91CF9137CDDF912A
:107A3000CF910895CF93DF93EC01FC013C968DE24A
:107A4000DF011D928A95E9F782E08C83898761E0E6
:107A5000CE010196DADC882331F061E0CE01069692
:107A6000DF91CF91D2CC80E0DF91CF910895EF925A
:107A7000FF920F931F93CF93DF9300D0CDB7DEB764
:107A80002EB3243009F000C18C01FC0186818F7077
:107A90008093E9008091E80082FFBDC086818F70ED
:107AA0008093E9001A8219827801FCE0EF0EF11C44
:107AB000AE014F5F5F4F6FE070E0C701EDDBF80193
:107AC000853021F480AD882399F3A5C08485958500
:107AD000A685B78585359345A244B34461F4F80182
:107AE000918D8385981738F4808D8F7121F4828D64
:107AF0008150803180F08091EB0080628093EB00B8
:107B0000F80181818F708093E9008091EB008062A1
:107B10008093EB0080C01A8219827801FBE1EF0E9E
:107B2000F11CF801628D70E0AE014F5F5F4FC7013D
:107B3000B3DB853029F4F80180AD882391F36BC065
:107B40008091E8008B778093E800F801808D87FFB3
:107B500004C081818F708093E900C8010E945A346B
:107B600091E09827F80197AB45E553E562E473E5AA
:107B700043A754A765A776A740895189628973896D
:107B800047A750AB61AB72AB448955896689778949
:107B900043AB54AB65AB76AB811109C0452B462B8B
:107BA000472B29F08091EB0080628093EB00F80175
:107BB00086818F708093E9008091EB00F80185FF4A
:107BC00004C080AD8823C1F326C081818F7080936B
:107BD000E9008091EB0085FF05C0F80180AD8823A6
:107BE000C1F319C01A8219827801FBE2EF0EF11C71
:107BF000AE014F5F5F4F6DE070E0C70104DB853081
:107C000029F4F80180AD882399F305C08091E8003C
:107C10008E778093E800F80180AD8823A9F1268152
:107C20002F7081E090E0AC0102C0440F551F2A95EF
:107C3000E2F74093EA001092EA0021812F7001C020
:107C4000880F2A95EAF78093EA001092EA0086816D
:107C50008F708093E9008091EB0080618093EB004E
:107C60008091EB0088608093EB0081818F7080931E
:107C7000E9008091EB0080618093EB008091EB0044
:107C800088608093EB0010AE0F900F90DF91CF9142
:107C90001F910F91FF90EF900895F999FECF92BD3B
:107CA00081BDF89A992780B50895262FF999FECFBE
:107CB00092BD81BDF89A019700B4021639F01FBA3F
:107CC00020BD0FB6F894FA9AF99A0FBE0895F89469
:027CD000FFCFE4
:107CD2000100834000000104400000010100000097
:107CE2000000000000000000000000000000000092
:107CF2000000000000000000000000000000000082
:107D02000000000000000000000070000000000001
:107D1200000A000000000000000000004C5546412F
:107D220020424F4F542020080000000000000000B5
:107D32000000000000000000000000004146004C6E
:107D4200004100530048000F00262E004200490067
:107D52004E0000000000000000000000464C4153AD
:107D62004820202042494E00000000000000000090
:107D7200000020084E120200006800004145004544
:107D820000500052004F000F00144D002E00420020
:107D920049004E000000000000000000454550521E
:107DA2004F4D202042494E0000000000000000001C
:107DB200000020084E120F00FF03000009022000FD
:107DC2000101008032090400000208065000070584
:107DD200830240000507050402400005120110015C
:107DE20000000008EB0345200100000000010080B4
:107DF20000021F0000004C55464100000000426F87
:107E02006F746C6F61646572000000000000302EB8
:107E12003030EB3C906D6B646F736673000002044C
:107E220001000210005600F80100160001000000D7
:107E3200000000000000000029785634124C55461C
:107E42004120424F4F5420204641543132202020BD
:107FA000A0C8B1C8C2C8CEC8D3C8D8C8DEC8089552
:087FB000089508950895089555
:107FE000DFCFDFCFDFCFDFCFDFCFDFCFDFCFDFCF21
:087FF000DFCFDFCFDFCFDFCFD1
:087FF8000070000030DFFBDC2B
:040000030000700089
:00000001FF
