:1070000039C000006EC000006CC000006AC0000003
:1070100068C0000066C0000064C0000062C00000DC
:1070200060C000005EC000005CC0000035C500000C
:1070300058C0000056C0000054C0000052C00000FC
:1070400050C000004EC00000B8C100004AC000009F
:1070500048C0000046C0000044C0000042C000001C
:1070600040C000003EC000003CC000003AC000002C
:1070700038C0000011241FBECFEFD4E0DEBFCDBF6B
:1070800004B603FE19C080917F0190918001823483
:107090009C4D91F484B7877F84BF88E10FB6F89444
:1070A00080936000109260000FBE109280011092D9
:1070B0007F01E0E0F0E0099511E0A0E0B1E0EEE64C
:1070C000FDE702C005900D92A236B107D9F711E095
:1070D000A2E6B1E001C01D92AF37B107E1F737D1A9
:1070E00044C68ECF8823A9F09091F20091110DC073
:1070F0009091E8009B7F9093E8009091E80092FDCA
:1071000006C09EB39111F9CF04C09091F100815057
:10711000E9CF0895EAE6F1E0358124819381828107
:107120009093640180936501C901909362018093FB
:10713000630108951F93CF93DF93CDB7DEB72797F1
:107140000FB6F894DEBF0FBECDBF90917401809151
:107150006A019923D1F0843049F480916B01811147
:1071600008C080916C018F3F21F45AC0853009F42A
:10717000ACC08AE08093000183E08093720180912B
:10718000EB0080628093EB00D8C0843009F448C0E3
:1071900028F4813051F08330F1F0CFC0853009F40C
:1071A00094C0863009F4BDC0C8C010916B01123084
:1071B00008F0C3C0AFDF11110CC080916401909141
:1071C000650123E0FC0120935700E89507B600FC19
:1071D000FDCF85E007C080916B01982F9D7F29F43A
:1071E00099DF89E080930001A8C0813009F0A5C033
:1071F000E0E0F0E084918F3F69F010926601F09337
:107200006501E09364018AE08093000185E080934A
:10721000720193C03196E11520E7F20759F78DC04E
:1072200080916B01833069F581E080937301209137
:1072300070013091710180916C01232B61F08130DC
:1072400009F07BC090916F0180916E01909367016E
:107250008093680172C0811111C082E49CED90930B
:10726000800180937F019CE088E10FB6F894A89597
:10727000809360000FBE909360005FC01092010188
:107280005CC081115AC080916C018F3F09F055C0DC
:10729000E0E0F0E083E095E080935700E89507B6E2
:1072A00000FCFDCF90935700E89507B600FCFDCF9A
:1072B000E058FF4FE11520E7F20771F781E1809375
:1072C0005700E8951092740138C080E28D838CEDF0
:1072D0008E838BEF8F8388E589838EE18A8385E9AE
:1072E0008B838AE88C8320916C0180916B018111E2
:1072F00005C0FE01E20FF11D858110C08130E9F467
:10730000822F90E0203618F4E1EDFFEF02C0E4EAAE
:10731000FFEFEC0FFD1FE80FF91F808180936901DB
:107320000CC080916B01833041F480916C0181111C
:1073300004C080916D018093660127960FB6F89482
:10734000DEBF0FBECDBFDF91CF911F91089584B7EF
:10735000877F84BF88E10FB6F89480936000109215
:1073600060000FBE90E080E80FB6F8948093610053
:10737000909361000FBEC1E0C5BF82E085BF7DD3A1
:10738000C0936F0083E08093810078948091010125
:10739000882311F0CCD4FACF809173018111FACFF8
:1073A00023D310926F001092810081E085BF15BE3B
:1073B000E0916701F091680109951F920F920FB655
:1073C0000F9211240F900FBE0F901F9018958F925F
:1073D0009F92AF92BF92CF92DF92EF92FF920F9364
:1073E0001F93CF93DF93809177018F77813209F0DC
:1073F000E0C180917D0190917E0190937101809315
:10740000700180917801833009F490C158F4813083
:10741000D1F0823009F0CDC18091E800877F809360
:10742000E800FDC0853009F4A7C108F49DC186308D
:1074300009F0BFC18091E800877F8093E80082E077
:1074400080930001A9C18091E800877F8093E800C4
:1074500080917301882319F06DDE10927301809181
:10746000700190917101009741F12091E80022FD97
:1074700004C02EB32111F9CF9CC12091F1002093BB
:107480006A0101979093710180937001EBE6F1E03E
:1074900025E02E0F8091F200882371F08091F10099
:1074A0008193809170019091710101979093710186
:1074B000809370012E13EECF3DDE80910001853068
:1074C00009F0A5C08091700190917101892B21F480
:1074D00082E0809300019BC08AE104DE0091640198
:1074E00010916501802F8F71FDDD80916201909177
:1074F00063010196EC01C01BD10B80916B018111DE
:1075000074C0CE0196958795680120916601E22EA0
:10751000F12C4601570120E0A1E0B5E0C3E000975F
:1075200009F441C03091F2003323C9F00197609112
:10753000F1003091F100462F532FF6010A01A0937C
:107540005700E89511242F5FB701A6014E5F5F4FEA
:107550006F4F7F4F6A017B01203471F40FC030916F
:10756000E8003B7F3093E8003091E80032FDDECF49
:107570003EB33111F9CF1DC1009789F6F401B093E4
:107580005700E89507B600FCFDCF009709F4C7CF78
:10759000FA01C0935700E89507B600FCFDCF4A01F9
:1075A0005B0120E0BCCF80916201909163019093D8
:1075B00065018093640181E180935700E89525C0BF
:1075C0008091F2008823A1F06091F10021978091D1
:1075D000640190916501BBD3809164019091650134
:1075E00001969093650180936401209749F70DC03F
:1075F0008091E8008B7F8093E8008091E80082FD15
:10760000E3CF8EB38111F9CFD4C080E16BDD8091DF
:10761000E8008B7F88C08EB3882309F4CAC08091AC
:10762000E80080FFF8CF80910001893091F08A3026
:1076300059F480916B01813039F49091640180910B
:1076400065019093F10002C0809169018093F1007F
:1076500067C02091640130916501C0916201D091B1
:1076600063012196C21BD30B80916B0181112EC047
:10767000D695C795C90120916601A22FB0E0219748
:10768000E0F02091F200203259F0FC012591349174
:107690002093F1003093F1000296A11DB11DEFCFB0
:1076A0002091E8002E7F2093E8002091E80020FD43
:1076B000ECCF2EB32111F9CF7CC080916201909163
:1076C0006301909365018093640127C0823029F59E
:1076D000209719F18091F200803291F0809164013D
:1076E000909165012CD38093F10080916401909179
:1076F0006501019690936501809364012197E8CF1D
:107700008091E8008E7F8093E8008091E80080FD02
:10771000E5CF8EB38111F9CF4CC082E08093000198
:107720008091E8008E7F8093E80036C08091E80069
:10773000877F8093E8008091E80080FD04C08EB3CD
:107740008111F9CF36C0809172018093F1001092BF
:10775000F1001092F1001092F100809100018093ED
:10776000F1001092F100DCCF8091E800877F8093D8
:10777000E8001092720110C08091E800877F80932A
:10778000E8008091E80080FD04C08EB38111F9CF3C
:1077900010C0809100015ACFDF91CF911F910F91BE
:1077A000FF90EF90DF90CF90BF90AF909F908F9021
:1077B000FEC0DF91CF911F910F91FF90EF90DF906E
:1077C000CF90BF90AF909F908F900895292F30E079
:1077D0002230310559F02330310569F0213031056F
:1077E000F9F482E190E02FE431E01EC08BE190E0FB
:1077F00024E331E019C0882349F0813061F0823000
:1078000079F482E190E022E031E00EC084E090E083
:1078100020E331E009C088E190E026E131E004C0D6
:1078200080E090E020E030E0FA0131832083089589
:1078300007B600FCFDCFF999FECF23E0FB012093B2
:107840005700E89507B600FCFDCF81E18093570013
:10785000E895089507B600FCFDCFF999FECF25E025
:10786000FB0120935700E89507B600FCFDCF81E1AE
:1078700080935700E895089507B600FCFDCFF9996D
:10788000FECF21E0FB010A0120935700E895112467
:10789000089521E2FC01209357008491089529E086
:1078A000FC012093570084910895E1E0F0E089E025
:1078B000809357008491089507B600FCFDCFF99995
:1078C000FECF809599E0E1E0F0E0082E909357001C
:1078D000E895089520917D0130917E0126173707A4
:1078E00048F06115710539F42091E8002E7F20934E
:1078F000E80001C0B90140E06115710579F12EB3CE
:107900002223F1F12530F1F12091E80023FD3CC064
:107910002091E80022FD2EC02091E80020FFECCF4E
:107920002091F20030E0FC01CF016115710559F0A2
:107930002032310540F481918093F100615071094A
:107940002F5F3F4FF1CF41E02032310509F040E099
:107950002091E8002E7F2093E800CECF4111CFCFB9
:1079600009C08EB3882361F0853061F08091E80012
:1079700083FD0AC08091E80082FFF3CF80E0089584
:1079800082E0089583E0089581E00895EBEEF0E051
:10799000808181608083EDEEF0E010826093EC00E6
:1079A00040838091EE00881F8827881F089580916A
:1079B000770187FF0FC08091E80082FD04C08EB37D
:1079C0008111F9CF10C08091E8008B7F0AC08EB37F
:1079D000882349F08091E80080FFF9CF8091E8008A
:1079E0008E7F8093E800089551D053D0E0EEF0E010
:1079F000808181608083E8EDF0E080818F778083F3
:107A000019BCE3E6F0E0808181608083109276010A
:107A100008953CD03ED08091D8008F778093D800D5
:107A20008091D80080688093D8008091D8008F7DA5
:107A30008093D80084E089BD86E089BD09B400FE4A
:107A4000FDCF1EBA1092750142E260E080E09EDF39
:107A50008091E1008E7F8093E1008091E20081605F
:107A60008093E2008091E20088608093E200809140
:107A7000E0008E7F8093E0000895E3E6F0E08081EF
:107A80008E7F808381E080937601C3CF1092E200E5
:107A900008951092E10008951F920F920FB60F9271
:107AA00011242F933F934F935F936F937F938F9303
:107AB0009F93AF93BF93EF93FF938091E10080FF7B
:107AC00016C08091E20080FF12C08091E2008E7F9C
:107AD0008093E2008091E20080618093E2008091D7
:107AE000D80080628093D80019BC1EBA1FD1809143
:107AF000E10084FF2EC08091E20084FF2AC084E070
:107B000089BD86E089BD09B400FEFDCF8091D80013
:107B10008F7D8093D8008091E1008F7E8093E1007B
:107B20008091E2008F7E8093E2008091E20081608C
:107B30008093E20080917501882311F084E007C0F2
:107B40008091E30087FD02C081E001C083E08EBB2D
:107B5000EDD08091E10083FF21C08091E20083FF9E
:107B60001DC08091E100877F8093E10082E08EBBA1
:107B7000109275018091E1008E7F8093E1008091E9
:107B8000E2008E7F8093E2008091E200806180932A
:107B9000E20042E260E080E0F9DEC8D0FF91EF91C0
:107BA000BF91AF919F918F917F916F915F914F9115
:107BB0003F912F910F900FBE0F901F9018951F931C
:107BC000CF93DF9300D0CDB7DEB7E7E7F1E088E0F1
:107BD0008E0F9091F10091938E13FBCFF8DB809183
:107BE000E80083FF8FC080917701909178019630F3
:107BF000E1F128F4992351F09530B1F083C0983029
:107C000009F453C0993009F462C07CC08D7F80387C
:107C100009F078C08091E800877F8093E800109297
:107C2000F1001092F1004CC081116CC010917901EB
:107C30001F778091E3008078812B8093E30080910F
:107C4000E800877F8093E800B2DE8091E80080FF43
:107C5000FCCF8091E30080688093E300111102C0A3
:107C600082E001C083E08EBB4DC08058823008F0B6
:107C700049C0AE014F5F5F4F60917B0180917901F8
:107C800090917A01A3DDBC01892B09F43BC090914E
:107C9000E800977F9093E80089819A811BDE8091AC
:107CA000E8008B7F8093E8002DC0803859F58091E3
:107CB000E800877F8093E800809175018093F10050
:107CC0008091E8008E7F8093E80071DE1BC08111F7
:107CD00019C0909179019230A8F48091E800877FD3
:107CE0008093E8009093750162DE809175018111A7
:107CF00006C08091E30087FD02C081E001C084E0FE
:107D00008EBB14D08091E80083FF0AC08091E80008
:107D1000877F8093E8008091EB0080628093EB0086
:107D20000F900F90DF91CF911F91089508958EB31A
:107D3000882321F08091E80083FD41CF0895F999CF
:107D4000FECF92BD81BDF89A992780B50895262F60
:107D5000F999FECF1FBA92BD81BD20BD0FB6F89430
:0E7D6000FA9AF99A0FBE01960895F894FFCF93
:107D6E00020112034C005500460041002000440061
:107D7E0046005500000018034400650061006E00C7
:107D8E002000430061006D0065007200610000007C
:107D9E000403090409021B000101008032090400DA
:107DAE000000FE0102000921030000000C10011268
:107DBE0001100100000020EB03F02F000001020073
:027DCE000100B2
:107FA00047CC58CC69CC75CC7ACC7FCC85CC0895A5
:087FB000089508950895089555
:107FE000DFCFDFCFDFCFDFCFDFCFDFCFDFCFDFCF21
:087FF000DFCFDFCFDFCFDFCFD1
:087FF8000070000010DFFBDC4B
:040000030000700089
:00000001FF
