:100000000C94DA000C941E010C941E010C941E0139
:100010000C941E010C941E010C941E010C941E01E4
:100020000C941E010C941E010C941E010C944206AB
:100030000C94F1060C9493120C941E010C941E0166
:100040000C941E010C941E010C941E010C94D112F0
:100050000C941E010C941E010C941E010C941E01A4
:100060000C941E010C941E010C941E010C941E0194
:100070000C941E0190019301960199019C019F012E
:10008000A201A501A8015E0780076E0880076E081F
:10009000C507E8076E083D085008EC0AEC0A1A0B81
:1000A0001A0B1D0D1D0D1D0D1D0D530B1D0D4E0CA1
:1000B0004E0C1D0D1D0D1D0D090D2700000000002B
:1000C00000000000001E0000000000000000000012
:1000D0001F000000000000000000002000000000E1
:1000E00000000000000021000000000000000000EF
:1000F00000220000000000000000000023000000BB
:1001000000000000000000240000000000000000CB
:1001100000002500000000000000000000260E0383
:100120006B006500790074006500650000000C0339
:10013000740072006500620062000000040309049C
:1001400009022200010100A032090400000103019C
:100150000100092111010001224000070581030867
:10016000000A12011001000000080912EEE401006B
:100170000102000105010906A101050719E029E7AF
:100180001500250195087501810295017508810109
:100190000508190129059505750191029501750359
:1001A00091010507190029FF150026FF0095067526
:1001B000088100C011241FBECFEFD4E0DEBFCDBF49
:1001C00004B603FE24C08091B9019091BA01A091B8
:1001D000BB01B091BC018730904BA740B04BB9F444
:1001E0001092B9011092BA011092BB011092BC0199
:1001F00014BE84B7877F84BF88E10FB6F8948093DC
:100200006000109260000FBEE0E0F8E3099511E095
:10021000A0E0B1E0EEECF7E202C005900D92AE3046
:10022000B107D9F711E0AEE0B1E001C01D92A93BE2
:10023000B107E1F70E94B1030C94E5130C940000A0
:100240009B0190E064E670E00E94CE13FC01832FD6
:1002500090E06AE070E00E94CE138E0F9F1FFC01B9
:10026000E20FF11DE654FF4F84910895E82FF0E06E
:10027000EE0FFF1FE65CF04085919491089584B1E4
:10028000857584B985B1857585B987B18B7587B951
:1002900088B18B7588B98AB1857D8AB98BB1857D26
:1002A0008BB908950E943F0184B18A7A84B985B1DF
:1002B000856585B987B18F7A87B988B1806588B936
:1002C0008AB18A7A8AB98BB185658BB9E2E2F1E0AD
:1002D000AEE0B1E0119211921D921D9281E0E633E1
:1002E000F807C1F70895DF92EF92FF920F931F93E3
:1002F000CF93DF930EE011E0E801F12CEE24E394BC
:1003000085E0D82E8F2D90E0FC013197E930F10582
:1003100020F4E65CFF4F0C94DF13219A29981AC051
:10032000239A2B9817C0259A2D9814C0279A2F9896
:1003300011C03D9A45980EC03F9A47980BC0519AFC
:10034000599808C0539A5B9805C0559A5D9802C0A9
:100350003A9A429880EA8A95F1F783B181708E25A6
:1003600090E01A9903C022E030E002C020E030E0C3
:10037000822B932B1C9903C064E070E002C060E004
:1003800070E0862B972B1E9903C068E070E002C0D6
:1003900060E070E0862B972B349903C040E150E079
:1003A00002C040E050E0842B952B369903C020E238
:1003B00030E002C020E030E0822B932B489903C04C
:1003C00060E470E002C060E070E0862B972B4A99F1
:1003D00003C040E850E002C040E050E0842B952B81
:1003E0004C9903C020E031E002C020E030E0822BD5
:1003F000932B4E9903C020E032E002C020E030E0B1
:10040000822B932B288139812817390721F0998372
:100410008883D09200010E943F01F39422969AE0D3
:10042000F91270CF809100018823C1F08150809330
:100430000001882339F0AFE9BFE01197F1F700C060
:1004400000000CC0E2E2F1E0D8018D919D918D0198
:1004500081939193B1E002321B07B1F781E0DF9104
:10046000CF911F910F91FF90EF90DF900895E82FAB
:10047000F0E0EE0FFF1FEE5DFE4F80819181089549
:100480000895089580913F0108950895CF93DF93D3
:1004900000D01F92CDB7DEB72091B001243021F5F6
:1004A00023E029839B838A8381E08093E9008FEF97
:1004B0009091E800815095FD06C095ED9A95F1F771
:1004C00000008111F5CF8091E80085FF0DC040E06C
:1004D00050E063E070E0CE0101960E9450048091EC
:1004E000E8008E778093E8000F900F900F90DF91D7
:1004F000CF910895CF93DF9300D01F92CDB7DEB791
:100500002091B001243021F522E029839B838A8346
:1005100081E08093E9008FEF9091E800815095FD94
:1005200006C095ED9A95F1F700008111F5CF809105
:10053000E80085FF0DC040E050E063E070E0CE01D0
:1005400001960E9450048091E8008E778093E80025
:100550000F900F900F90DF91CF910895CF93DF937D
:100560002091B001243039F521E02093E9002FEFEC
:100570003091E800215035FD06C035ED3A95F1F790
:1005800000002111F5CF2091E80025FF14C0EC01F7
:1005900040E050E068E070E00E9450048091E80084
:1005A0008E778093E80088E0FE01A7E3B1E0019038
:1005B0000D928A95E1F7DF91CF910895089542E079
:1005C00061EC81E00C9459058091B201833009F40B
:1005D00053C030F4813071F0823009F48CC008953A
:1005E0008A3009F478C08B3009F45EC0893009F094
:1005F0009AC020C08091B101813A09F094C08091E5
:10060000E800877F8093E8008091B5019091B60162
:10061000892B21F468E087E391E003C060E080E08B
:1006200090E070E00E949B048091E8008B778093BB
:10063000E80008958091B101813209F074C0809181
:10064000B5019091B601892B09F06DC08091E80049
:10065000877F8093E8008091E80082FD05C080914B
:10066000B0018111F8CF5FC08091F10080933F010C
:100670008091E8008B7753C08091B101813A09F0F5
:1006800052C08091B5019091B601892B09F04BC001
:100690008091E800877F8093E8008091E80080FFE8
:1006A000FCCF80910B0136C08091B1018132D9F528
:1006B0008091B5019091B601892BA9F58091E80050
:1006C000877F8093E8000E948E058091B30180931C
:1006D0000B010C94320D8091B101813221F5809192
:1006E000E800877F8093E8000E948E058091B40126
:1006F0008093400108958091B101813AA1F48091E5
:10070000E800877F8093E8008091E80080FFFCCFBD
:10071000809140018093F1008091E8008E77809372
:10072000E8000C948E0508950895089580913F0186
:100730008093360110923F0180E00E9441020E94A6
:1007400092090C94320D0C9496030E9454128091DD
:10075000AE01882329F00E947A1281110C943A0488
:10076000089584B7877F84BF88E10FB6F89480939B
:100770006000109260000FBE90E080E80FB6F89421
:1007800080936100909361000FBE0E9494030E94C9
:10079000CF080E94DF050E9432068091E20084604B
:1007A0008093E20078948091B0018430E1F70E9458
:1007B000D10881E091E00E9487080E949503809112
:1007C000B001853019F40E94A503F9CF0E94D50825
:1007D000F6CF0E948F128091360180933F010895D9
:1007E0000C94E903292F332723303105C1F05CF441
:1007F0002130310579F022303105A1F582E290E017
:1008000020E431E033C021323105F1F022323105EC
:1008100011F128C082E190E022E631E027C099275B
:100820008130910541F08230910541F0892BD1F45E
:10083000ECE3F1E005C0EEE2F1E002C0EEE1F1E050
:10084000849190E09F0112C061110CC089E090E09A
:1008500022E531E00BC0611105C080E490E024E79F
:1008600031E004C080E090E020E030E0FA01318324
:100870002083089584E089BD86E089BD09B400FE27
:10088000FDCF8091D8008F7D8093D8008091E000CB
:1008900082608093E0008091E00081FDFCCF0895AC
:1008A000CF92DF92EF92FF920F931F93CF93DF933C
:1008B000EC018B016A010E94AD05811133C0C114A6
:1008C000D10439F0F60180819181081B190BC80F02
:1008D000D91FE12CF12C0115110519F18091E800C7
:1008E00085FD16C08091E8008E778093E800C114E2
:1008F000D10449F0F60180819181E80EF91EF18260
:10090000E08285E00FC00E94AD05882321F30AC074
:1009100089918093F10001501109FFEFEF1AFF0A4E
:10092000DACF80E0DF91CF911F910F91FF90EF9090
:10093000DF90CF9008952091B7013091B80126172C
:10094000370748F06115710539F42091E8002E77DA
:100950002093E80001C0B90140E06115710591F1F3
:100960002091B001222309F440C0253009F43FC092
:100970002091E80023FD3DC02091E80022FD2FC01A
:100980002091E80020FFE9CF2091F20030E0FC0147
:10099000CF016115710559F02830310540F481917E
:1009A0008093F100615071092F5F3F4FF1CF41E01B
:1009B0002830310509F040E02091E8002E7720939F
:1009C000E800CBCF4111CCCF0AC08091B001882381
:1009D00061F0853061F08091E80083FD0AC080916C
:1009E000E80082FFF2CF80E0089582E0089583E07E
:1009F000089581E008952091B7013091B80126173C
:100A0000370748F06115710539F42091E8002E7719
:100A10002093E80001C0B901FC0120E061157105D7
:100A200079F18091B001882309F43DC0853009F443
:100A30003CC08091E80083FD3AC08091E80082FDCF
:100A40002CC08091E80080FFE9CF8091F20090E017
:100A50006115710559F08830910540F42491209377
:100A6000F1003196615071090196F2CF21E00897AB
:100A700009F020E08091E8008E778093E800CECFE7
:100A80002111CFCF0AC08091B001882361F0853059
:100A900061F08091E80083FD0AC08091E80082FF48
:100AA000F2CF80E0089582E0089583E0089581E028
:100AB0000895982F953058F59093E900981739F0DC
:100AC0007091EC002091ED005091F00003C0242FB4
:100AD000762F50E021FF19C03091EB003E7F30931C
:100AE000EB003091ED003D7F3093ED003091EB0055
:100AF00031603093EB007093EC002093ED00509345
:100B0000F0002091EE0027FF07C09F5FD3CF8F70CA
:100B10008093E90081E0089580E008958091B1011B
:100B200087FF11C08091E80082FD05C08091B0016F
:100B30008111F8CF11C08091E8008B770BC08091B4
:100B4000B001882349F08091E80080FFF8CF8091C0
:100B5000E8008E778093E80008952091E4003091BA
:100B6000E50095E64091EC00842F817040FF22C0A3
:100B70008091E80080FD1CC08091B001882391F035
:100B8000853091F08091EB0085FD10C04091E4002C
:100B90005091E5004217530729F39A01915011F73C
:100BA00084E0089582E0089583E0089581E0089547
:100BB00080E008954091E80042FFDECF08950E9452
:100BC0003C060E943F06E0EEF0E080818160808379
:100BD000E8EDF0E080818F77808319BCE3E6F0E0F8
:100BE0008081816080831092AF0108950E943C064D
:100BF0000E943F068091D8008F778093D800809123
:100C0000D80080688093D8008091D8008F7D809331
:100C1000D80084E089BD86E089BD09B400FEFDCF1F
:100C20001092B0011092AC011092AE011092AD0181
:100C300042E060E080E00E9459058091E1008E7FF3
:100C40008093E1008091E20081608093E2008091D6
:100C5000E20088608093E2008091E0008E7F8093C4
:100C6000E0000895E3E6F0E080818E7F808381E0FC
:100C70008093AF010C94F6051092E2000895109253
:100C8000E10008951F920F920FB60F9211242F9337
:100C90003F934F935F936F937F938F939F93AF9304
:100CA000BF93EF93FF938091E10082FF0BC080918F
:100CB000E20082FF07C08091E1008B7F8093E1001A
:100CC0000E9486088091E10080FF19C08091E200B7
:100CD00080FF15C08091E2008E7F8093E2008091BA
:100CE000E20080618093E2008091D800806280936E
:100CF000D80019BC85E08093B0010E94A3038091C5
:100D0000E10084FF30C08091E20084FF2CC084E0C9
:100D100089BD86E089BD09B400FEFDCF8091D80071
:100D20008F7D8093D8008091E1008F7E8093E100D9
:100D30008091E2008F7E8093E2008091E2008160EA
:100D40008093E2008091AC01882311F084E007C019
:100D50008091E30087FD02C081E001C083E08093C1
:100D6000B0010E94F0038091E10083FF29C08091CF
:100D7000E20083FF25C08091E100877F8093E1003E
:100D800082E08093B0011092AC018091E1008E7FEF
:100D90008093E1008091E2008E7F8093E200809159
:100DA000E20080618093E20042E060E080E00E9427
:100DB00059058091F00088608093F0000E94DE0267
:100DC000FF91EF91BF91AF919F918F917F916F9123
:100DD0005F914F913F912F910F900FBE0F901F90F9
:100DE00018951F920F920FB60F9211242F933F93D5
:100DF0004F935F936F937F938F939F93AF93BF9323
:100E0000CF93DF93EF93FF93C091E900CF70809170
:100E1000EC00D82FD17080FDD0E81092E9008091CD
:100E2000F000877F8093F00078940E94350710923D
:100E3000E9008091F00088608093F000CD2BCF70A6
:100E4000C093E900FF91EF91DF91CF91BF91AF91F6
:100E50009F918F917F916F915F914F913F912F91D2
:100E60000F900FBE0F901F9018951F93CF93DF9395
:100E7000CDB7DEB7AA970FB6F894DEBF0FBECDBFD1
:100E8000E1EBF1E088E08E0F9091F10091938E13E9
:100E9000FBCF0E94E4028091E80083FF1FC1809194
:100EA000B1019091B201492F50E04A30510508F04C
:100EB00015C1FA01ED5BFF4F0C94DF13803881F010
:100EC000823809F00BC18091B5018F708093E900E1
:100ED0008091EB0085FB882780F91092E90006C01D
:100EE0008091AD019091AE01911182609091E800E6
:100EF000977F9093E8008093F1001092F100C8C0B2
:100F0000282F2D7F09F0EAC0882319F0823061F084
:100F1000E5C08091B301813009F0E0C0933009F061
:100F200080E08093AE012BC08091B301811127C076
:100F30008091B5018F7009F4D1C08093E9002091B0
:100F4000EB0020FF1CC0933021F48091EB00806205
:100F500014C09091EB0090619093EB0021E030E0A1
:100F6000A90102C0440F551F8A95E2F74093EA0099
:100F70001092EA008091EB0088608093EB00109261
:100F8000E9008091E800877F86C08111A7C0109199
:100F9000B3011F778091E3008078812B8093E30079
:100FA0008091E800877F8093E8000E948E05809101
:100FB000E80080FFFCCF8091E30080688093E3002D
:100FC000111102C082E001C083E08093B00186C0AD
:100FD0008058823008F082C08091B3019091B401B2
:100FE0008C3D53E0950779F583E08A838AE2898313
:100FF0004FB7F894DE01139620E03EE051E2E32F74
:10100000F0E050935700E49120FF03C0E295EF70A9
:101010003F5FEF708E2F90E0EA3010F0C79601C06E
:10102000C0968D939D932F5F243149F74FBF8091D8
:10103000E800877F8093E8006AE270E0CE010196C5
:101040000E949B0414C0AE014F5F5F4F6091B501D9
:101050000E94F203BC01892B09F440C09091E80082
:10106000977F9093E80089819A810E94FB04809188
:10107000E8008B778093E80031C0803879F5809163
:10108000E800877F8093E8008091AC018093F100B5
:101090008091E8008E778093E8000E948E051EC044
:1010A00081111CC09091B3019230C0F48091E8008E
:1010B000877F8093E8009093AC010E948E05809119
:1010C000AC01811106C08091E30087FD02C081E080
:1010D00001C084E08093B0010E94DF028091E800AB
:1010E00083FF0AC08091E800877F8093E8008091A9
:1010F000EB0080628093EB00AA960FB6F894DEBFF7
:101100000FBECDBFDF91CF911F91089508959093A9
:101110004601809345010895E0914501F091460113
:10112000309721F00190F081E02D099480E008953E
:10113000E0914501F0914601309721F00280F38162
:10114000E02D0994089520914301309144018217C4
:10115000930771F09093440180934301E09145011E
:10116000F0914601309721F00680F781E02D099437
:10117000089520914101309142018217930771F047
:101180009093420180934101E0914501F091460125
:10119000309721F00084F185E02D099408950C9496
:1011A00093090E94BC120C9452014F925F927F925D
:1011B0008F929F92AF92BF92CF92DF92EF92FF9267
:1011C0000F931F93CF93DF9300D000D01F92CDB722
:1011D000DEB70E94730198E4C92E91E0D92E00E099
:1011E00010E0AA24A394B12C702E802F0E94370205
:1011F0004C01F601419051906F0148265926411447
:101200005104B1F40F5F1F4F0A30110569F78FEFDA
:1012100089838A831B820E94C5128160782F9D83F7
:101220008C8349815A816B818D810E94960941C0CE
:101230008091A60181FD0E94400220E030E075010E
:10124000022E02C0EE0CFF1C0A94E2F7C7018421B3
:101250009521892B41F129837A828E209F2091E06C
:10126000892809F490E09B830E94C5128160782F41
:101270009D838C8349815A816B818D810E9496095F
:1012800049815A816B817C818D810E944112000FBE
:10129000111FF801E85BFE4F80819181E826F92655
:1012A000F182E08206C02F5F3F4F2A30310539F6C8
:1012B000A9CF0E944012109147010E948C08181774
:1012C000D1F00E948C08809347010F900F900F90EF
:1012D0000F900F90DF91CF911F910F91FF90EF90A2
:1012E000DF90CF90BF90AF909F908F907F905F9056
:1012F0004F900C9452120F900F900F900F900F90F0
:10130000DF91CF911F910F91FF90EF90DF90CF90E1
:10131000BF90AF909F908F907F905F904F90089577
:101320000C9441020895089508950895CF93DF9392
:10133000CDB7DEB72B970FB6F894DEBF0FBECDBF8B
:10134000942F4F83252F588769877A878B874A8503
:101350005B85452B21F02F3F09F59F3FF9F4DE0116
:10136000119686E0FD0111928A95E9F785E0FE016C
:10137000379601900D928A95E1F749815A816B81E8
:101380007C818D819E810E94DB0F2B960FB6F89495
:10139000DEBF0FBECDBFDF91CF9108954F8158853D
:1013A00069857A858B850E944112D9CF882309F4FB
:1013B0009BC09CEF980F913A18F40E94E1110DC068
:1013C00090E2980F983058F4877091E001C0990F1F
:1013D0008A95EAF7892F0E9420120C94CB119BE585
:1013E000980F933070F4853A29F0863A31F083E80B
:1013F00090E005C081E890E002C082E890E00C94A3
:10140000A30898E5980F953108F06EC0883A61F10D
:10141000893A69F18A3A71F18B3A79F18C3A81F122
:101420008D3A89F18E3A91F18F3A99F1813BA1F190
:10143000803BA9F1823BB1F1833BB9F1843BC1F11F
:10144000853BC9F1863BD1F1873BD9F1883BE1F17E
:10145000893BE9F18A3BF1F18B3BF9F18C3B09F4D3
:101460003FC080E090E03EC082EE90E03BC089EE5D
:1014700090E038C08AEE90E035C085EB90E032C055
:1014800086EB90E02FC083EB90E02CC084EB90E0E3
:1014900029C087EB90E026C08CEC90E023C08DEC57
:1014A00090E020C083E891E01DC08AE891E01AC076
:1014B00082E991E017C084E991E014C081E292E0F2
:1014C00011C083E292E00EC084E292E00BC085E29C
:1014D00092E008C086E292E005C087E292E002C096
:1014E0008AE292E00C94B9080895882329F19CEFD0
:1014F000980F913A18F40E94FE110DC090E2980FD7
:10150000983058F4877091E001C0990F8A95EAF7F6
:10151000892F0E9426120C94CB119BE5980F9330D3
:1015200020F480E090E00C94A308885A853120F4E0
:1015300080E090E00C94B9080895882321F00E947F
:1015400020120C94CB110895882321F00E942612BA
:101550000C94CB110895CF92DF92EF92FF920F93EC
:101560001F93CF93DF93CDB7DEB727970FB6F894CD
:10157000DEBF0FBECDBF25E0FC01DE01119601905C
:101580000D922A95E1F7FC0140813181028125818C
:1015900022952F7063817481672B09F44EC23F3FFF
:1015A00019F44F3F09F449C26C0149833A83898198
:1015B0009A812F830E948A11182F9E830E9489117D
:1015C0000E949B103E81E32FE295EF70F0E0E35B19
:1015D000FF4F2F810C94DF13832F807F932F9F70F9
:1015E000F92E882319F0F29490EFF922002349F0A4
:1015F000FF2009F4E9C18F2D0E9430120E94CB1107
:10160000E3C1812F0E94750AFF2009F416C28F2DB5
:101610000E94361227960FB6F894DEBF0FBECDBFDC
:10162000DF91CF911F910F91FF90EF90DF90CF90BE
:101630000C94CB11832F807F932F9F70F92E8032D3
:1016400019F0F29480EFF822113071F4002341F088
:10165000263008F0F2C10E941D128F2179F021C0BE
:10166000253008F0EAC11DC00023C9F0222331F063
:10167000F601858180FFA8C18F7085838F2D279605
:101680000FB6F894DEBF0FBECDBFDF91CF911F9193
:101690000F91FF90EF90DF90CF900C949D0A211155
:1016A000A7C18F2D15C1832F837009F078C0011158
:1016B000C4C1812F829586958770880F880F912FDE
:1016C0009F70C92ED12CE12CF12C082E04C0CC0C1B
:1016D000DD1CEE1CFF1C0A94D2F714FF12C04FE071
:1016E00050E060E070E004C0440F551F661F771F94
:1016F0008A95D2F7CB01BA01609570958095909547
:1017000003C060E070E0CB01232F2695269523705F
:10171000422F50E042305105D1F04330510559F18C
:101720006C297D298E299F294130510541F1279649
:101730000FB6F894DEBF0FBECDBFDF91CF911F91E2
:101740000F91FF90EF90DF90CF900C94AE106C292A
:101750007D298E299F2927960FB6F894DEBF0FBEEC
:10176000CDBFDF91CF911F910F91FF90EF90DF9050
:10177000CF900C94C0100E94AE10C701B6012796FE
:101780000FB6F894DEBF0FBECDBFDF91CF911F9192
:101790000F91FF90EF90DF90CF900C949C1000235E
:1017A00019F0832F817001C08695882309F445C103
:1017B000812F829586958770880F880F912F9F7053
:1017C000C92ED12CE12CF12C082E04C0CC0CDD1C30
:1017D000EE1CFF1C0A94D2F714FF12C04FE050E039
:1017E00060E070E004C0440F551F661F771F8A95A4
:1017F000D2F7CB01BA01609570958095909503C0A2
:1018000060E070E0CB01232F269526952370422FB0
:1018100050E042305105D1F04330510559F16C2967
:101820007D298E299F294130510541F127960FB618
:10183000F894DEBF0FBECDBFDF91CF911F910F9106
:10184000FF90EF90DF90CF900C9465116C297D296B
:101850008E299F2927960FB6F894DEBF0FBECDBF05
:10186000DF91CF911F910F91FF90EF90DF90CF907C
:101870000C9477110E946511C701B60127960FB627
:10188000F894DEBF0FBECDBFDF91CF911F910F91B6
:10189000FF90EF90DF90CF900C945311103F41F1E7
:1018A00018F4103E48F48BC0123F09F450C0D8F130
:1018B000133F09F460C083C01F70832F8F71002312
:1018C00021F00E94EC10812FDACE0E940D11812FA1
:1018D00027960FB6F894DEBF0FBECDBFDF91CF9134
:1018E0001F910F91FF90EF90DF90CF900C94A40A7E
:1018F0000023A9F0253008F0A0C0832F8F71279610
:101900000FB6F894DEBF0FBECDBFDF91CF911F9110
:101910000F91FF90EF90DF90CF900C943211263012
:1019200008F08BC0EACF0023A1F0832F8F71279698
:101930000FB6F894DEBF0FBECDBFDF91CF911F91E0
:101940000F91FF90EF90DF90CF900C94EC1000235C
:1019500061F3832F8F7127960FB6F894DEBF0FBE09
:10196000CDBFDF91CF911F910F91FF90EF90DF904E
:10197000CF900C940D11002391F0832F8F71279637
:101980000FB6F894DEBF0FBECDBFDF91CF911F9190
:101990000F91FF90EF90DF90CF900C94D710279687
:1019A0000FB6F894DEBF0FBECDBFDF91CF911F9170
:1019B0000F91FF90EF90DF90CF900C94D210002306
:1019C000A1F0222309F4B1CF812F27960FB6F89406
:1019D000DEBF0FBECDBFDF91CF911F910F91FF9062
:1019E000EF90DF90CF900C94D609222309F4B1CF69
:1019F000812F27960FB6F894DEBF0FBECDBFDF91C3
:101A0000CF911F910F91FF90EF90DF90CF900C94AA
:101A1000750A432F4F70612FC60127960FB6F894B1
:101A2000DEBF0FBECDBFDF91CF911F910F91FF9011
:101A3000EF90DF90CF900C94181327960FB6F89480
:101A4000DEBF0FBECDBFDF91CF911F910F91FF90F1
:101A5000EF90DF90CF9008950E943D120E940F12E8
:101A60000C94CB110E942D120C942C0D0E948A1103
:101A7000292F22952F7030E02C3031054CF42A307C
:101A800031056CF4225031092230310588F407C049
:101A90002C30310549F02F30310531F009C0803E3E
:101AA00048F0803F29F406C093FB882780F9089509
:101AB00080E0089581E00895CF93DF9300D000D0B7
:101AC0001F92CDB7DEB70F900F900F900F900F9031
:101AD000DF91CF910895CF93DF9300D000D000D055
:101AE000CDB7DEB726960FB6F894DEBF0FBECDBFDA
:101AF000DF91CF910895CF93DF93C0915C018091E6
:101B00005D01C817A1F0D0E0CE0166E070E00E9450
:101B1000CE13FC01E25AFE4F4081518162817381F4
:101B2000848195810E946B0D2196C770E8CFDF916B
:101B3000CF91089540918E0150918F016091900155
:101B40007091910180919201909193010C946B0D91
:101B5000CF93DF938091930182958F7009F05CC0E1
:101B600080919001882309F457C020915C01D091A5
:101B70005D0140918E01C0918F01E0919101F09142
:101B800092012D1709F448C030E0309709F440C0A5
:101B9000CF3F11F44F3FE1F1C90166E070E00E94D0
:101BA000CE13DC01A25ABE4F11968C911197C81327
:101BB0002FC08C9148132CC012968C9112978111D2
:101BC00027C013968D919C9114978E179F0708F448
:101BD00001978E1B9F0B883C9105D0F48091930157
:101BE0008F70806180939301C90166E070E00E946C
:101BF000CE13FC01ED59FE4F90819F709061908350
:101C00008EE891E00E94AB0ADF91CF910C947B0D9E
:101C10002F5F3F4F2770B5CFDF91CF910895BF92CF
:101C2000CF92DF92EF92FF920F931F93CF93DF93A8
:101C3000CDB7DEB761970FB6F894DEBF0FBECDBF4C
:101C40008C0185E0F801DE011D9601900D928A95C8
:101C5000E1F7D8014C9111962C9111971296EC90C6
:101C600012971396CD90DC90149750918E0160914D
:101C70008F018091910190919201009709F46EC1BA
:101C80006F3F19F45F3F09F469C1B0909001BB2028
:101C900009F4C3C030919301C816D90628F0F601A3
:101CA000E81BF90BCF0104C0809590958C0D9D1D0C
:101CB000FF24F394883C910588F0F12C307F09F0E3
:101CC000CBC07C2DD98AC88A522F6E2D89890E945B
:101CD0005C0D8EE891E00E94AB0AB4C0832F807F38
:101CE00009F049C0621314C0541312C0E11010C0AF
:101CF0003F703061309393010E949A0D8EE891E01D
:101D00000E94AB0A80919301D80115968C9331C043
:101D1000CD2831F12F3F11F44F3F11F1FE2CE1108E
:101D20001FC0E0915C0130915D01E31709F45CC0D4
:101D3000F0E0CF0166E070E00E94CE13DC01A25A11
:101D4000BE4F11968C911197281307C08C914813A0
:101D500004C012968C91811103C03196E770E5CFD3
:101D6000FE2CEE2009F416C18091930181608093CE
:101D70009301F12C0FC1621308C0541306C0E11087
:101D800004C080919301D801C1C04D872E878D85F5
:101D90009E850E94360D8823E1F1EE20D1F120913D
:101DA0009301822F82958F7090E0029774F080915A
:101DB0008E0190918F0198878F831986DB86CA8662
:101DC0002C87CE0107960E94AB0A86E0F801AEE8A8
:101DD000B1E001900D928A95E1F70E94A80D0E9452
:101DE0009A0DFF24F394D6C04D872E878D859E854E
:101DF0000E948A11292F22952F7030E02230310560
:101E00000CF0BCC09F7009F0B6C0805E883008F44A
:101E1000C1C0C8010E94AB0AE4CFC816D90608F4B5
:101E200053C0F601E81BF90BCF01883C910508F47B
:101E300050C0F12C7C2DD98AC88A522F6E2D8989E9
:101E40000E945C0DEEE8F1E086E0DF011D928A95CC
:101E5000E9F70E949A0D9EC0621314C0541312C079
:101E6000E11010C080919301F8018583C8010E94A0
:101E7000AB0A86E0EEE8F1E0DF011D928A95E9F712
:101E8000FB2C88C04D872E878D859E850E94360D40
:101E9000882309F4BECFEE2009F4BBCF2091930133
:101EA000822F82958F7090E002970CF48ECF8091F4
:101EB0008E0190918F019A8389831B82DD82CC826F
:101EC0002E83CE0101967FCF809590958C0D9D1D20
:101ED000ACCFFE2CEE2009F49CCF62132EC054131D
:101EE0002CC02091930120FD1FC0822F82958F70FE
:101EF000D9F0D80115962C9315978F3049F08F5F44
:101F0000982F9295907F822F8F70892B15968C93A6
:101F1000C8010E94AB0A86E0F801AEE8B1E001908A
:101F20000D928A95E1F795CF86E0F801AEE8B1E031
:101F300001900D928A95E1F72DC04D872E878D85F2
:101F40009E850E94360D811140CF80919301816062
:101F500080939301C8010E94AB0A1CC0EE2009F4D3
:101F600058CF4D872E878D859E850E94360D8823FC
:101F700009F44FCF2ACF811148CF0CC0243031054E
:101F80000CF047CF9F7009F440CFF8019581907F06
:101F900009F03BCF8F2D61960FB6F894DEBF0FBED0
:101FA000CDBFDF91CF911F910F91FF90EF90DF9008
:101FB000CF90BF900895CF93DF93CDB7DEB72C9726
:101FC0000FB6F894DEBF0FBECDBF4F835887698729
:101FD0007A878B879C87CE0107960E940F0E8823F5
:101FE00071F08F8198852A853B85232B09F43FC0AA
:101FF0009F3F09F068C08F3F09F065C038C086E098
:10200000FE013796DE01119601900D928A95E1F757
:102010006F817885EA85FB85309749F17F3F11F420
:102020006F3F29F180915D0190E09C012F5F3F4F50
:102030002770332740915C0150E02417350709F4DD
:102040004BC069837A83FD83EC8366E070E00E9475
:10205000CE13DC01A25ABE4F96E0FE0131960190EC
:102060000D929A95E1F720935D010E947B0D80917E
:102070005C0190915D018917E9F190E066E070E004
:102080000E94CE13825A9E4F0E940F0E882391F118
:1020900080915C0190E066E070E00E94CE13FC014C
:1020A000E25AFE4F40815181628173818481958122
:1020B0000E946B0D80915C0190E0019687709927DA
:1020C00080935C01D4CF4F81588569857A858B8553
:1020D0009C850E946B0DCBCF0E94320D10925D014A
:1020E00010925C01EEE8F1E086E0DF011D928A9536
:1020F000E9F7BDCF2C960FB6F894DEBF0FBECDBF6B
:10210000DF91CF9108956093980170939901809326
:102110009A0190939B010E9450120C942C0D609395
:1021200094017093950180939601909397010E947A
:1021300051120C942C0D08950F931F930091980148
:102140001091990120919A0130919B01602B712B84
:10215000822B932B1F910F910C9483100F931F933D
:10216000009198011091990120919A0130919B0161
:1021700060237123822393231F910F910C9483106A
:102180000F931F93009198011091990120919A014A
:1021900030919B0160277127822793271F910F9110
:1021A0000C94831060E070E0CB010C948F100F93BF
:1021B0001F9341E050E060E070E08A019B0104C0A1
:1021C000000F111F221F331F8A95D2F7C901B801D2
:1021D0001F910F910C948F100F931F9341E050E0CB
:1021E00060E070E004C0440F551F661F771F8A959A
:1021F000D2F78091940190919501A0919601B091B0
:1022000097018A019B01082B192B2A2B3B2BC90113
:10221000B8011F910F910C948F100F931F9341E001
:1022200050E060E070E004C0440F551F661F771F48
:102230008A95D2F74095509560957095809194015C
:1022400090919501A0919601B09197018A019B010F
:10225000082319232A233B23C901B8011F910F9199
:102260000C948F100F931F9341E050E060E070E0FA
:1022700004C0440F551F661F771F8A95D2F78091BF
:10228000940190919501A0919601B09197018A01D6
:102290009B01082719272A273B27C901B8011F914D
:1022A0000F910C948F100F931F9300919401109134
:1022B00095012091960130919701602B712B822B13
:1022C000932B1F910F910C948F100F931F930091DC
:1022D000940110919501209196013091970160230E
:1022E0007123822393231F910F910C948F100F93CE
:1022F0001F930091940110919501209196013091C6
:10230000970160277127822793271F910F910C94C3
:102310008F100895CF92DF92EF92FF920F931F9349
:10232000CF93DF938C01C0909801D0909901E090F9
:102330009A01F0909B014091940150919501609118
:10234000960170919701C42AD52AE62AF72ACFE18F
:10235000D0E0D701C6010C2E04C0B695A79597957D
:1023600087950A94D2F780FF07C0B8018C2F0E948E
:1023700019138130910531F4219758F7B80180E0A5
:102380000E941913DF91CF911F910F91FF90EF9051
:10239000DF90CF900895E0910C01F0910D018091B4
:1023A000A5018083E0910C01F0910D019081809155
:1023B000A401892B808380910C0190910D010C94D4
:1023C000980820910C0130910D01F90132969FEF90
:1023D00040E05191581789F09F3F19F4511101C005
:1023E000942F4F5F4630A9F79F3F39F0F901E90F6D
:1023F000F11D97FDFA9582830895089520910C01AF
:1024000030910D01F9013296285F3F4F908198136A
:1024100001C010823196E217F307C1F7089581E0F9
:1024200090E0E0910C01F0910D01E80FF91F10828E
:10243000019688309105A9F708958091A501089526
:102440009091A501892B8093A50108958095909185
:10245000A50189238093A50108951092A5010895EF
:102460009091A401892B8093A40108958095909167
:10247000A40189238093A40108951092A4010895D2
:102480000895CF93DF9300D000D01F92CDB7DEB771
:102490000F900F900F900F900F90DF91CF910895B4
:1024A000089508950C9490098091B001843009F149
:1024B0001092A70120E488E190E00FB6F894A89567
:1024C000809360000FBE2093600083B7817F84609B
:1024D00083BF83B7816083BF7894889583B78E7FED
:1024E00083BF88E10FB6F89480936000109260007B
:1024F0000FBE0895CF930E9494090E9473010E9419
:102500009509C0E08C2F0E943702892B29F4CF5FF8
:10251000CA30C1F780E001C081E0CF9108950E94E8
:1025200092090C94320D1F920F920FB60F92112444
:102530008F939F93AF93BF938091A701811113C095
:102540008091A8019091A901A091AA01B091AB013D
:102550004196A11DB11D8093A8019093A901A0935C
:10256000AA01B093AB01BF91AF919F918F910F9052
:102570000FBE0F901F90189582E084BD93E095BD2B
:102580009AEF97BD80936E0008952FB7F8948091CD
:10259000A8019091A901A091AA01B091AB012FBF10
:1025A00008951F920F920FB60F9211248F939F934D
:1025B000AF93BF938091A8019091A901A091AA0126
:1025C000B091AB010196A11DB11D8093A80190931C
:1025D000A901A093AA01B093AB01BF91AF919F91C4
:1025E0008F910F900FBE0F901F9018950E94DF05DE
:1025F000F8942FEF87EA91E6215080409040E1F770
:1026000000C0000087E090EBDC018093B90190935B
:10261000BA01A093BB01B093BC019CE088E10FB666
:10262000F894A895809360000FBE90936000FFCF50
:1026300008950E94200190E4980F903218F40E94AF
:10264000360108958D3B50F4883AA0F5853A28F577
:10265000843000F5813009F49DC099C0883E98F41B
:10266000803EC0F48F3B09F092C00E94320D2FEFE4
:1026700080E792E0215080409040E1F700C00000E8
:102680000E94F61284C0803F08F481C0282F30E0F9
:10269000306582C0282F30E07FC0853A29F0863A25
:1026A00031F023E830E478C021E830E475C022E856
:1026B00030E472C0883A61F1893A69F18A3A71F17D
:1026C0008B3A79F18C3A81F18D3A89F18E3A91F118
:1026D0008F3A99F1813BA1F1803BA9F1823BB1F1A5
:1026E000833BB9F1843BC1F1853BC9F1863BD1F114
:1026F000873BD9F1883BE1F1893BE9F18A3BF1F174
:102700008B3BF9F18C3B09F43FC020E034E444C03A
:1027100022EE34E441C029EE34E43EC02AEE34E433
:102720003BC025EB34E438C026EB34E435C023EB62
:1027300034E432C024EB34E42FC027EB34E42CC063
:102740002CEC34E429C02DEC34E426C023E835E435
:1027500023C02AE835E420C022E935E41DC024E97D
:1027600035E41AC021E236E417C023E236E414C08F
:1027700024E236E411C025E236E40EC026E236E457
:102780000BC027E236E408C02AE236E405C020E0A8
:1027900030E002C021E030E0C9010895002455274F
:1027A00004C0080E591F880F991F009729F07695CD
:1027B0006795B8F37105B9F7802D952F0895EE0F41
:0E27C000FF1F0590F491E02D0994F894FFCFCF
:0E27CE00054202AE0245027A024602019C015B
:00000001FF
